{
  "contractName": "GameMarket",
  "abi": [
    {
      "constant": true,
      "inputs": [],
      "name": "seller",
      "outputs": [
        {
          "name": "",
          "type": "address"
        }
      ],
      "payable": false,
      "stateMutability": "view",
      "type": "function"
    },
    {
      "constant": true,
      "inputs": [],
      "name": "endTime",
      "outputs": [
        {
          "name": "",
          "type": "uint256"
        }
      ],
      "payable": false,
      "stateMutability": "view",
      "type": "function"
    },
    {
      "constant": true,
      "inputs": [],
      "name": "highestBidder",
      "outputs": [
        {
          "name": "",
          "type": "address"
        }
      ],
      "payable": false,
      "stateMutability": "view",
      "type": "function"
    },
    {
      "constant": true,
      "inputs": [],
      "name": "highestBid",
      "outputs": [
        {
          "name": "",
          "type": "uint256"
        }
      ],
      "payable": false,
      "stateMutability": "view",
      "type": "function"
    },
    {
      "inputs": [
        {
          "name": "_biddingTime",
          "type": "uint256"
        },
        {
          "name": "_seller",
          "type": "address"
        }
      ],
      "payable": false,
      "stateMutability": "nonpayable",
      "type": "constructor"
    },
    {
      "anonymous": false,
      "inputs": [
        {
          "indexed": false,
          "name": "bidder",
          "type": "address"
        },
        {
          "indexed": false,
          "name": "amount",
          "type": "uint256"
        }
      ],
      "name": "HighestBidIncreased",
      "type": "event"
    },
    {
      "anonymous": false,
      "inputs": [
        {
          "indexed": false,
          "name": "winner",
          "type": "address"
        },
        {
          "indexed": false,
          "name": "amount",
          "type": "uint256"
        }
      ],
      "name": "AuctionEnded",
      "type": "event"
    },
    {
      "constant": false,
      "inputs": [
        {
          "name": "_startPrice",
          "type": "uint256"
        },
        {
          "name": "_defense",
          "type": "uint256"
        },
        {
          "name": "_attack",
          "type": "uint256"
        },
        {
          "name": "_name",
          "type": "string"
        }
      ],
      "name": "onShelf",
      "outputs": [],
      "payable": false,
      "stateMutability": "nonpayable",
      "type": "function"
    },
    {
      "constant": false,
      "inputs": [],
      "name": "bid",
      "outputs": [],
      "payable": true,
      "stateMutability": "payable",
      "type": "function"
    },
    {
      "constant": false,
      "inputs": [],
      "name": "getGood",
      "outputs": [
        {
          "name": "",
          "type": "string"
        }
      ],
      "payable": false,
      "stateMutability": "nonpayable",
      "type": "function"
    },
    {
      "constant": false,
      "inputs": [],
      "name": "withdraw",
      "outputs": [
        {
          "name": "",
          "type": "bool"
        }
      ],
      "payable": false,
      "stateMutability": "nonpayable",
      "type": "function"
    },
    {
      "constant": false,
      "inputs": [],
      "name": "auctionEnd",
      "outputs": [],
      "payable": false,
      "stateMutability": "nonpayable",
      "type": "function"
    }
  ],
  "bytecode": "0x608060405234801561001057600080fd5b50604051604080610dbb8339810180604052810190808051906020019092919080519060200190929190505050806000806101000a81548173ffffffffffffffffffffffffffffffffffffffff021916908373ffffffffffffffffffffffffffffffffffffffff1602179055508142016001819055505050610d24806100976000396000f300608060405260043610610099576000357c0100000000000000000000000000000000000000000000000000000000900463ffffffff16806308551a531461009e5780631998aeef146100f55780632a24f46c146100ff5780633197cbb6146101165780633ccfd60b1461014157806391f9015714610170578063aba9484c146101c7578063d57bde791461024e578063dde0b90014610279575b600080fd5b3480156100aa57600080fd5b506100b3610309565b604051808273ffffffffffffffffffffffffffffffffffffffff1673ffffffffffffffffffffffffffffffffffffffff16815260200191505060405180910390f35b6100fd61032e565b005b34801561010b57600080fd5b50610114610554565b005b34801561012257600080fd5b5061012b610812565b6040518082815260200191505060405180910390f35b34801561014d57600080fd5b50610156610818565b604051808215151515815260200191505060405180910390f35b34801561017c57600080fd5b5061018561093d565b604051808273ffffffffffffffffffffffffffffffffffffffff1673ffffffffffffffffffffffffffffffffffffffff16815260200191505060405180910390f35b3480156101d357600080fd5b5061024c600480360381019080803590602001909291908035906020019092919080359060200190929190803590602001908201803590602001908080601f0160208091040260200160405190810160405280939291908181526020018383808284378201915050505050509192919290505050610963565b005b34801561025a57600080fd5b50610263610b2e565b6040518082815260200191505060405180910390f35b34801561028557600080fd5b5061028e610b34565b6040518080602001828103825283818151815260200191508051906020019080838360005b838110156102ce5780820151818401526020810190506102b3565b50505050905090810190601f1680156102fb5780820380516001836020036101000a031916815260200191505b509250505060405180910390f35b6000809054906101000a900473ffffffffffffffffffffffffffffffffffffffff1681565b60015442111515156103a8576040517f08c379a00000000000000000000000000000000000000000000000000000000081526004018080602001828103825260168152602001807f41756374696f6e20616c726561647920656e6465642e0000000000000000000081525060200191505060405180910390fd5b60035434111515610421576040517f08c379a000000000000000000000000000000000000000000000000000000000815260040180806020018281038252601e8152602001807f546865726520616c7265616479206973206120686967686572206269642e000081525060200191505060405180910390fd5b600060035414151561049f5760035460046000600260009054906101000a900473ffffffffffffffffffffffffffffffffffffffff1673ffffffffffffffffffffffffffffffffffffffff1673ffffffffffffffffffffffffffffffffffffffff168152602001908152602001600020600082825401925050819055505b33600260006101000a81548173ffffffffffffffffffffffffffffffffffffffff021916908373ffffffffffffffffffffffffffffffffffffffff160217905550346003819055507ff4757a49b326036464bec6fe419a4ae38c8a02ce3e68bf0809674f6aab8ad3003334604051808373ffffffffffffffffffffffffffffffffffffffff1673ffffffffffffffffffffffffffffffffffffffff1681526020018281526020019250505060405180910390a1565b60015442101515156105ce576040517f08c379a00000000000000000000000000000000000000000000000000000000081526004018080602001828103825260168152602001807f41756374696f6e206e6f742079657420656e6465642e0000000000000000000081525060200191505060405180910390fd5b600560009054906101000a900460ff16151515610679576040517f08c379a00000000000000000000000000000000000000000000000000000000081526004018080602001828103825260238152602001807f61756374696f6e456e642068617320616c7265616479206265656e2063616c6c81526020017f65642e000000000000000000000000000000000000000000000000000000000081525060400191505060405180910390fd5b6001600560006101000a81548160ff0219169083151502179055507fdaec4582d5d9595688c8c98545fdd1c696d41c6aeaeb636737e84ed2f5c00eda600260009054906101000a900473ffffffffffffffffffffffffffffffffffffffff16600354604051808373ffffffffffffffffffffffffffffffffffffffff1673ffffffffffffffffffffffffffffffffffffffff1681526020018281526020019250505060405180910390a160011515600b60009054906101000a900460ff16151514156107a657600260009054906101000a900473ffffffffffffffffffffffffffffffffffffffff16600660000160006101000a81548173ffffffffffffffffffffffffffffffffffffffff021916908373ffffffffffffffffffffffffffffffffffffffff1602179055505b6000809054906101000a900473ffffffffffffffffffffffffffffffffffffffff1673ffffffffffffffffffffffffffffffffffffffff166108fc6003549081150290604051600060405180830381858888f1935050505015801561080f573d6000803e3d6000fd5b50565b60015481565b600080600460003373ffffffffffffffffffffffffffffffffffffffff1673ffffffffffffffffffffffffffffffffffffffff1681526020019081526020016000205490506000811115610934576000600460003373ffffffffffffffffffffffffffffffffffffffff1673ffffffffffffffffffffffffffffffffffffffff168152602001908152602001600020819055503373ffffffffffffffffffffffffffffffffffffffff166108fc829081150290604051600060405180830381858888f1935050505015156109335780600460003373ffffffffffffffffffffffffffffffffffffffff1673ffffffffffffffffffffffffffffffffffffffff1681526020019081526020016000208190555060009150610939565b5b600191505b5090565b600260009054906101000a900473ffffffffffffffffffffffffffffffffffffffff1681565b6000809054906101000a900473ffffffffffffffffffffffffffffffffffffffff1673ffffffffffffffffffffffffffffffffffffffff163373ffffffffffffffffffffffffffffffffffffffff161415156109be57600080fd5b60a0604051908101604052806000809054906101000a900473ffffffffffffffffffffffffffffffffffffffff1673ffffffffffffffffffffffffffffffffffffffff16815260200185815260200184815260200183815260200182815250600660008201518160000160006101000a81548173ffffffffffffffffffffffffffffffffffffffff021916908373ffffffffffffffffffffffffffffffffffffffff1602179055506020820151816001015560408201518160020155606082015181600301556080820151816004019080519060200190610aa0929190610c53565b509050506001600b60006101000a81548160ff021916908315150217905550836003819055506000809054906101000a900473ffffffffffffffffffffffffffffffffffffffff16600260006101000a81548173ffffffffffffffffffffffffffffffffffffffff021916908373ffffffffffffffffffffffffffffffffffffffff16021790555050505050565b60035481565b60606001544211151515610bb0576040517f08c379a00000000000000000000000000000000000000000000000000000000081526004018080602001828103825260118152602001807f41756374696f6e20697320656e6465642e00000000000000000000000000000081525060200191505060405180910390fd5b60066004018054600181600116156101000203166002900480601f016020809104026020016040519081016040528092919081815260200182805460018160011615610100020316600290048015610c495780601f10610c1e57610100808354040283529160200191610c49565b820191906000526020600020905b815481529060010190602001808311610c2c57829003601f168201915b5050505050905090565b828054600181600116156101000203166002900490600052602060002090601f016020900481019282601f10610c9457805160ff1916838001178555610cc2565b82800160010185558215610cc2579182015b82811115610cc1578251825591602001919060010190610ca6565b5b509050610ccf9190610cd3565b5090565b610cf591905b80821115610cf1576000816000905550600101610cd9565b5090565b905600a165627a7a723058200ed62adf90646f10f3945210116b2c95f324215ad1f41d3ed538d3c3fbb53bab0029",
  "source": "pragma solidity >=0.4.22 <0.6.0;\r\n\r\ncontract GameMarket {\r\n\t//卖家\r\n    address public seller;\r\n\t\r\n\t//结束时间\r\n    uint public endTime;\r\n    \r\n    //最高出价 \r\n    address public highestBidder;\r\n    uint public highestBid;\r\n\r\n\t//卖家和出价对应\r\n    mapping(address => uint) pendingBidder;\r\n\r\n\t//是否结束\r\n    bool ended;\r\n\r\n\t//出现更高出价引发的事件\r\n    event HighestBidIncreased(address bidder, uint amount);\r\n\t\r\n\t//竞拍结束\r\n    event AuctionEnded(address winner, uint amount);\r\n\r\n\t//构造函数\r\n    constructor(\r\n        uint _biddingTime,\r\n        address _seller\r\n    ) public {\r\n        seller = _seller;\r\n        endTime = now + _biddingTime;\r\n    }\r\n\t\r\n\t//货物\r\n\tstruct Good {\r\n\t\taddress goodSeller;\r\n\t\tuint startPrice;\r\n\t\t\r\n\t\t//属性值，可以自定义\r\n\t\tuint defense;\r\n\t\tuint attack;\r\n\t\tstring name;\r\n\t}\r\n\t\r\n\tGood good;\r\n\t\r\n\t//货物是否存在\r\n\tbool existGood;\r\n\t\r\n\t//上架\r\n\tfunction onShelf(uint _startPrice, uint _defense, uint _attack, string _name) public {\r\n\t\trequire (msg.sender == seller) ;\r\n\t\t\r\n\t\tgood = Good({\r\n\t\t\tname: _name,\r\n\t\t\tgoodSeller: seller,\r\n\t\t\tstartPrice: _startPrice,\r\n\t\t\tdefense: _defense,\r\n\t\t\tattack: _attack\r\n\t\t});\r\n\t\t\r\n\t\texistGood = true;\r\n\t\t\r\n\t\thighestBid = _startPrice;\r\n\t\thighestBidder = seller;\r\n\t}\r\n\r\n\t//出价\r\n    function bid() public payable {\r\n        require(\r\n            now <= endTime,\r\n            \"Auction already ended.\"\r\n        );\r\n        require(\r\n            msg.value > highestBid,\r\n            \"There already is a higher bid.\"\r\n        );\r\n\r\n        if (highestBid != 0) {\r\n            pendingBidder[highestBidder] += highestBid;\r\n        }\r\n        highestBidder = msg.sender;\r\n        highestBid = msg.value;\r\n        emit HighestBidIncreased(msg.sender, msg.value);\r\n    }\r\n\t\r\n\tfunction getGood () public returns (string) {\r\n\t\trequire(now <= endTime, \"Auction is ended.\");\r\n\t\t\r\n\t\treturn good.name ;\r\n\t}\r\n\t\r\n\r\n    function withdraw() public returns (bool) {\r\n        uint amount = pendingBidder[msg.sender];\r\n        if (amount > 0) {\r\n            pendingBidder[msg.sender] = 0;\r\n\r\n            if (!msg.sender.send(amount)) {\r\n                pendingBidder[msg.sender] = amount;\r\n                return false;\r\n            }\r\n        }\r\n        return true;\r\n    }\r\n\r\n    function auctionEnd() public {\r\n        require(now >= endTime, \"Auction not yet ended.\");\r\n        require(!ended, \"auctionEnd has already been called.\");\r\n\r\n        ended = true;\r\n        emit AuctionEnded(highestBidder, highestBid);\r\n\t\t\r\n\t\tif(existGood == true) {\r\n\t\t\tgood.goodSeller = highestBidder;\r\n\t\t}\r\n\r\n        seller.transfer(highestBid);\r\n    }\r\n}",
  "sourcePath": "F:\\BlockChain\\contracts\\GameMarket.sol",
  "compiler": {
    "name": "solc",
    "version": "0.4.24+commit.e67f0147.Emscripten.clang"
  },
  "schemaVersion": "2.0.1",
  "updatedAt": "2018-11-26T08:42:13.278Z"
}